{
  "address": "0xB570B7d9fCF420A1065182157D75aD21da3841C1",
  "abi": [
    {
      "inputs": [
        {
          "internalType": "contract IVotes",
          "name": "_token",
          "type": "address"
        }
      ],
      "stateMutability": "nonpayable",
      "type": "constructor"
    },
    {
      "inputs": [],
      "name": "Empty",
      "type": "error"
    },
    {
      "inputs": [],
      "name": "InvalidShortString",
      "type": "error"
    },
    {
      "inputs": [
        {
          "internalType": "string",
          "name": "str",
          "type": "string"
        }
      ],
      "name": "StringTooLong",
      "type": "error"
    },
    {
      "anonymous": false,
      "inputs": [],
      "name": "EIP712DomainChanged",
      "type": "event"
    },
    {
      "anonymous": false,
      "inputs": [
        {
          "indexed": false,
          "internalType": "uint256",
          "name": "proposalId",
          "type": "uint256"
        }
      ],
      "name": "ProposalCanceled",
      "type": "event"
    },
    {
      "anonymous": false,
      "inputs": [
        {
          "indexed": false,
          "internalType": "uint256",
          "name": "proposalId",
          "type": "uint256"
        },
        {
          "indexed": false,
          "internalType": "address",
          "name": "proposer",
          "type": "address"
        },
        {
          "indexed": false,
          "internalType": "address[]",
          "name": "targets",
          "type": "address[]"
        },
        {
          "indexed": false,
          "internalType": "uint256[]",
          "name": "values",
          "type": "uint256[]"
        },
        {
          "indexed": false,
          "internalType": "string[]",
          "name": "signatures",
          "type": "string[]"
        },
        {
          "indexed": false,
          "internalType": "bytes[]",
          "name": "calldatas",
          "type": "bytes[]"
        },
        {
          "indexed": false,
          "internalType": "uint256",
          "name": "voteStart",
          "type": "uint256"
        },
        {
          "indexed": false,
          "internalType": "uint256",
          "name": "voteEnd",
          "type": "uint256"
        },
        {
          "indexed": false,
          "internalType": "string",
          "name": "description",
          "type": "string"
        }
      ],
      "name": "ProposalCreated",
      "type": "event"
    },
    {
      "anonymous": false,
      "inputs": [
        {
          "indexed": false,
          "internalType": "uint256",
          "name": "proposalId",
          "type": "uint256"
        }
      ],
      "name": "ProposalExecuted",
      "type": "event"
    },
    {
      "anonymous": false,
      "inputs": [
        {
          "indexed": false,
          "internalType": "uint256",
          "name": "oldProposalThreshold",
          "type": "uint256"
        },
        {
          "indexed": false,
          "internalType": "uint256",
          "name": "newProposalThreshold",
          "type": "uint256"
        }
      ],
      "name": "ProposalThresholdSet",
      "type": "event"
    },
    {
      "anonymous": false,
      "inputs": [
        {
          "indexed": false,
          "internalType": "uint256",
          "name": "oldQuorumNumerator",
          "type": "uint256"
        },
        {
          "indexed": false,
          "internalType": "uint256",
          "name": "newQuorumNumerator",
          "type": "uint256"
        }
      ],
      "name": "QuorumNumeratorUpdated",
      "type": "event"
    },
    {
      "anonymous": false,
      "inputs": [
        {
          "indexed": true,
          "internalType": "address",
          "name": "voter",
          "type": "address"
        },
        {
          "indexed": false,
          "internalType": "uint256",
          "name": "proposalId",
          "type": "uint256"
        },
        {
          "indexed": false,
          "internalType": "uint8",
          "name": "support",
          "type": "uint8"
        },
        {
          "indexed": false,
          "internalType": "uint256",
          "name": "weight",
          "type": "uint256"
        },
        {
          "indexed": false,
          "internalType": "string",
          "name": "reason",
          "type": "string"
        }
      ],
      "name": "VoteCast",
      "type": "event"
    },
    {
      "anonymous": false,
      "inputs": [
        {
          "indexed": true,
          "internalType": "address",
          "name": "voter",
          "type": "address"
        },
        {
          "indexed": false,
          "internalType": "uint256",
          "name": "proposalId",
          "type": "uint256"
        },
        {
          "indexed": false,
          "internalType": "uint8",
          "name": "support",
          "type": "uint8"
        },
        {
          "indexed": false,
          "internalType": "uint256",
          "name": "weight",
          "type": "uint256"
        },
        {
          "indexed": false,
          "internalType": "string",
          "name": "reason",
          "type": "string"
        },
        {
          "indexed": false,
          "internalType": "bytes",
          "name": "params",
          "type": "bytes"
        }
      ],
      "name": "VoteCastWithParams",
      "type": "event"
    },
    {
      "anonymous": false,
      "inputs": [
        {
          "indexed": false,
          "internalType": "uint256",
          "name": "oldVotingDelay",
          "type": "uint256"
        },
        {
          "indexed": false,
          "internalType": "uint256",
          "name": "newVotingDelay",
          "type": "uint256"
        }
      ],
      "name": "VotingDelaySet",
      "type": "event"
    },
    {
      "anonymous": false,
      "inputs": [
        {
          "indexed": false,
          "internalType": "uint256",
          "name": "oldVotingPeriod",
          "type": "uint256"
        },
        {
          "indexed": false,
          "internalType": "uint256",
          "name": "newVotingPeriod",
          "type": "uint256"
        }
      ],
      "name": "VotingPeriodSet",
      "type": "event"
    },
    {
      "inputs": [],
      "name": "BALLOT_TYPEHASH",
      "outputs": [
        {
          "internalType": "bytes32",
          "name": "",
          "type": "bytes32"
        }
      ],
      "stateMutability": "view",
      "type": "function"
    },
    {
      "inputs": [],
      "name": "CLOCK_MODE",
      "outputs": [
        {
          "internalType": "string",
          "name": "",
          "type": "string"
        }
      ],
      "stateMutability": "view",
      "type": "function"
    },
    {
      "inputs": [],
      "name": "COUNTING_MODE",
      "outputs": [
        {
          "internalType": "string",
          "name": "",
          "type": "string"
        }
      ],
      "stateMutability": "pure",
      "type": "function"
    },
    {
      "inputs": [],
      "name": "EXTENDED_BALLOT_TYPEHASH",
      "outputs": [
        {
          "internalType": "bytes32",
          "name": "",
          "type": "bytes32"
        }
      ],
      "stateMutability": "view",
      "type": "function"
    },
    {
      "inputs": [
        {
          "internalType": "address[]",
          "name": "targets",
          "type": "address[]"
        },
        {
          "internalType": "uint256[]",
          "name": "values",
          "type": "uint256[]"
        },
        {
          "internalType": "bytes[]",
          "name": "calldatas",
          "type": "bytes[]"
        },
        {
          "internalType": "bytes32",
          "name": "descriptionHash",
          "type": "bytes32"
        }
      ],
      "name": "cancel",
      "outputs": [
        {
          "internalType": "uint256",
          "name": "",
          "type": "uint256"
        }
      ],
      "stateMutability": "nonpayable",
      "type": "function"
    },
    {
      "inputs": [
        {
          "internalType": "uint256",
          "name": "proposalId",
          "type": "uint256"
        },
        {
          "internalType": "uint8",
          "name": "support",
          "type": "uint8"
        }
      ],
      "name": "castVote",
      "outputs": [
        {
          "internalType": "uint256",
          "name": "",
          "type": "uint256"
        }
      ],
      "stateMutability": "nonpayable",
      "type": "function"
    },
    {
      "inputs": [
        {
          "internalType": "uint256",
          "name": "proposalId",
          "type": "uint256"
        },
        {
          "internalType": "uint8",
          "name": "support",
          "type": "uint8"
        },
        {
          "internalType": "uint8",
          "name": "v",
          "type": "uint8"
        },
        {
          "internalType": "bytes32",
          "name": "r",
          "type": "bytes32"
        },
        {
          "internalType": "bytes32",
          "name": "s",
          "type": "bytes32"
        }
      ],
      "name": "castVoteBySig",
      "outputs": [
        {
          "internalType": "uint256",
          "name": "",
          "type": "uint256"
        }
      ],
      "stateMutability": "nonpayable",
      "type": "function"
    },
    {
      "inputs": [
        {
          "internalType": "uint256",
          "name": "proposalId",
          "type": "uint256"
        },
        {
          "internalType": "uint8",
          "name": "support",
          "type": "uint8"
        },
        {
          "internalType": "string",
          "name": "reason",
          "type": "string"
        }
      ],
      "name": "castVoteWithReason",
      "outputs": [
        {
          "internalType": "uint256",
          "name": "",
          "type": "uint256"
        }
      ],
      "stateMutability": "nonpayable",
      "type": "function"
    },
    {
      "inputs": [
        {
          "internalType": "uint256",
          "name": "proposalId",
          "type": "uint256"
        },
        {
          "internalType": "uint8",
          "name": "support",
          "type": "uint8"
        },
        {
          "internalType": "string",
          "name": "reason",
          "type": "string"
        },
        {
          "internalType": "bytes",
          "name": "params",
          "type": "bytes"
        }
      ],
      "name": "castVoteWithReasonAndParams",
      "outputs": [
        {
          "internalType": "uint256",
          "name": "",
          "type": "uint256"
        }
      ],
      "stateMutability": "nonpayable",
      "type": "function"
    },
    {
      "inputs": [
        {
          "internalType": "uint256",
          "name": "proposalId",
          "type": "uint256"
        },
        {
          "internalType": "uint8",
          "name": "support",
          "type": "uint8"
        },
        {
          "internalType": "string",
          "name": "reason",
          "type": "string"
        },
        {
          "internalType": "bytes",
          "name": "params",
          "type": "bytes"
        },
        {
          "internalType": "uint8",
          "name": "v",
          "type": "uint8"
        },
        {
          "internalType": "bytes32",
          "name": "r",
          "type": "bytes32"
        },
        {
          "internalType": "bytes32",
          "name": "s",
          "type": "bytes32"
        }
      ],
      "name": "castVoteWithReasonAndParamsBySig",
      "outputs": [
        {
          "internalType": "uint256",
          "name": "",
          "type": "uint256"
        }
      ],
      "stateMutability": "nonpayable",
      "type": "function"
    },
    {
      "inputs": [],
      "name": "clock",
      "outputs": [
        {
          "internalType": "uint48",
          "name": "",
          "type": "uint48"
        }
      ],
      "stateMutability": "view",
      "type": "function"
    },
    {
      "inputs": [],
      "name": "eip712Domain",
      "outputs": [
        {
          "internalType": "bytes1",
          "name": "fields",
          "type": "bytes1"
        },
        {
          "internalType": "string",
          "name": "name",
          "type": "string"
        },
        {
          "internalType": "string",
          "name": "version",
          "type": "string"
        },
        {
          "internalType": "uint256",
          "name": "chainId",
          "type": "uint256"
        },
        {
          "internalType": "address",
          "name": "verifyingContract",
          "type": "address"
        },
        {
          "internalType": "bytes32",
          "name": "salt",
          "type": "bytes32"
        },
        {
          "internalType": "uint256[]",
          "name": "extensions",
          "type": "uint256[]"
        }
      ],
      "stateMutability": "view",
      "type": "function"
    },
    {
      "inputs": [
        {
          "internalType": "address[]",
          "name": "targets",
          "type": "address[]"
        },
        {
          "internalType": "uint256[]",
          "name": "values",
          "type": "uint256[]"
        },
        {
          "internalType": "bytes[]",
          "name": "calldatas",
          "type": "bytes[]"
        },
        {
          "internalType": "bytes32",
          "name": "descriptionHash",
          "type": "bytes32"
        }
      ],
      "name": "execute",
      "outputs": [
        {
          "internalType": "uint256",
          "name": "",
          "type": "uint256"
        }
      ],
      "stateMutability": "payable",
      "type": "function"
    },
    {
      "inputs": [
        {
          "internalType": "address",
          "name": "account",
          "type": "address"
        },
        {
          "internalType": "uint256",
          "name": "timepoint",
          "type": "uint256"
        }
      ],
      "name": "getVotes",
      "outputs": [
        {
          "internalType": "uint256",
          "name": "",
          "type": "uint256"
        }
      ],
      "stateMutability": "view",
      "type": "function"
    },
    {
      "inputs": [
        {
          "internalType": "address",
          "name": "account",
          "type": "address"
        },
        {
          "internalType": "uint256",
          "name": "timepoint",
          "type": "uint256"
        },
        {
          "internalType": "bytes",
          "name": "params",
          "type": "bytes"
        }
      ],
      "name": "getVotesWithParams",
      "outputs": [
        {
          "internalType": "uint256",
          "name": "",
          "type": "uint256"
        }
      ],
      "stateMutability": "view",
      "type": "function"
    },
    {
      "inputs": [
        {
          "internalType": "uint256",
          "name": "proposalId",
          "type": "uint256"
        },
        {
          "internalType": "address",
          "name": "account",
          "type": "address"
        }
      ],
      "name": "hasVoted",
      "outputs": [
        {
          "internalType": "bool",
          "name": "",
          "type": "bool"
        }
      ],
      "stateMutability": "view",
      "type": "function"
    },
    {
      "inputs": [
        {
          "internalType": "address[]",
          "name": "targets",
          "type": "address[]"
        },
        {
          "internalType": "uint256[]",
          "name": "values",
          "type": "uint256[]"
        },
        {
          "internalType": "bytes[]",
          "name": "calldatas",
          "type": "bytes[]"
        },
        {
          "internalType": "bytes32",
          "name": "descriptionHash",
          "type": "bytes32"
        }
      ],
      "name": "hashProposal",
      "outputs": [
        {
          "internalType": "uint256",
          "name": "",
          "type": "uint256"
        }
      ],
      "stateMutability": "pure",
      "type": "function"
    },
    {
      "inputs": [],
      "name": "name",
      "outputs": [
        {
          "internalType": "string",
          "name": "",
          "type": "string"
        }
      ],
      "stateMutability": "view",
      "type": "function"
    },
    {
      "inputs": [
        {
          "internalType": "address",
          "name": "",
          "type": "address"
        },
        {
          "internalType": "address",
          "name": "",
          "type": "address"
        },
        {
          "internalType": "uint256[]",
          "name": "",
          "type": "uint256[]"
        },
        {
          "internalType": "uint256[]",
          "name": "",
          "type": "uint256[]"
        },
        {
          "internalType": "bytes",
          "name": "",
          "type": "bytes"
        }
      ],
      "name": "onERC1155BatchReceived",
      "outputs": [
        {
          "internalType": "bytes4",
          "name": "",
          "type": "bytes4"
        }
      ],
      "stateMutability": "nonpayable",
      "type": "function"
    },
    {
      "inputs": [
        {
          "internalType": "address",
          "name": "",
          "type": "address"
        },
        {
          "internalType": "address",
          "name": "",
          "type": "address"
        },
        {
          "internalType": "uint256",
          "name": "",
          "type": "uint256"
        },
        {
          "internalType": "uint256",
          "name": "",
          "type": "uint256"
        },
        {
          "internalType": "bytes",
          "name": "",
          "type": "bytes"
        }
      ],
      "name": "onERC1155Received",
      "outputs": [
        {
          "internalType": "bytes4",
          "name": "",
          "type": "bytes4"
        }
      ],
      "stateMutability": "nonpayable",
      "type": "function"
    },
    {
      "inputs": [
        {
          "internalType": "address",
          "name": "",
          "type": "address"
        },
        {
          "internalType": "address",
          "name": "",
          "type": "address"
        },
        {
          "internalType": "uint256",
          "name": "",
          "type": "uint256"
        },
        {
          "internalType": "bytes",
          "name": "",
          "type": "bytes"
        }
      ],
      "name": "onERC721Received",
      "outputs": [
        {
          "internalType": "bytes4",
          "name": "",
          "type": "bytes4"
        }
      ],
      "stateMutability": "nonpayable",
      "type": "function"
    },
    {
      "inputs": [
        {
          "internalType": "uint256",
          "name": "proposalId",
          "type": "uint256"
        }
      ],
      "name": "proposalDeadline",
      "outputs": [
        {
          "internalType": "uint256",
          "name": "",
          "type": "uint256"
        }
      ],
      "stateMutability": "view",
      "type": "function"
    },
    {
      "inputs": [
        {
          "internalType": "uint256",
          "name": "proposalId",
          "type": "uint256"
        }
      ],
      "name": "proposalProposer",
      "outputs": [
        {
          "internalType": "address",
          "name": "",
          "type": "address"
        }
      ],
      "stateMutability": "view",
      "type": "function"
    },
    {
      "inputs": [
        {
          "internalType": "uint256",
          "name": "proposalId",
          "type": "uint256"
        }
      ],
      "name": "proposalSnapshot",
      "outputs": [
        {
          "internalType": "uint256",
          "name": "",
          "type": "uint256"
        }
      ],
      "stateMutability": "view",
      "type": "function"
    },
    {
      "inputs": [],
      "name": "proposalThreshold",
      "outputs": [
        {
          "internalType": "uint256",
          "name": "",
          "type": "uint256"
        }
      ],
      "stateMutability": "view",
      "type": "function"
    },
    {
      "inputs": [
        {
          "internalType": "uint256",
          "name": "proposalId",
          "type": "uint256"
        }
      ],
      "name": "proposalVotes",
      "outputs": [
        {
          "internalType": "uint256",
          "name": "againstVotes",
          "type": "uint256"
        },
        {
          "internalType": "uint256",
          "name": "forVotes",
          "type": "uint256"
        },
        {
          "internalType": "uint256",
          "name": "abstainVotes",
          "type": "uint256"
        }
      ],
      "stateMutability": "view",
      "type": "function"
    },
    {
      "inputs": [
        {
          "internalType": "address[]",
          "name": "targets",
          "type": "address[]"
        },
        {
          "internalType": "uint256[]",
          "name": "values",
          "type": "uint256[]"
        },
        {
          "internalType": "bytes[]",
          "name": "calldatas",
          "type": "bytes[]"
        },
        {
          "internalType": "string",
          "name": "description",
          "type": "string"
        }
      ],
      "name": "propose",
      "outputs": [
        {
          "internalType": "uint256",
          "name": "",
          "type": "uint256"
        }
      ],
      "stateMutability": "nonpayable",
      "type": "function"
    },
    {
      "inputs": [
        {
          "internalType": "uint256",
          "name": "blockNumber",
          "type": "uint256"
        }
      ],
      "name": "quorum",
      "outputs": [
        {
          "internalType": "uint256",
          "name": "",
          "type": "uint256"
        }
      ],
      "stateMutability": "view",
      "type": "function"
    },
    {
      "inputs": [],
      "name": "quorumDenominator",
      "outputs": [
        {
          "internalType": "uint256",
          "name": "",
          "type": "uint256"
        }
      ],
      "stateMutability": "view",
      "type": "function"
    },
    {
      "inputs": [
        {
          "internalType": "uint256",
          "name": "timepoint",
          "type": "uint256"
        }
      ],
      "name": "quorumNumerator",
      "outputs": [
        {
          "internalType": "uint256",
          "name": "",
          "type": "uint256"
        }
      ],
      "stateMutability": "view",
      "type": "function"
    },
    {
      "inputs": [],
      "name": "quorumNumerator",
      "outputs": [
        {
          "internalType": "uint256",
          "name": "",
          "type": "uint256"
        }
      ],
      "stateMutability": "view",
      "type": "function"
    },
    {
      "inputs": [
        {
          "internalType": "address",
          "name": "target",
          "type": "address"
        },
        {
          "internalType": "uint256",
          "name": "value",
          "type": "uint256"
        },
        {
          "internalType": "bytes",
          "name": "data",
          "type": "bytes"
        }
      ],
      "name": "relay",
      "outputs": [],
      "stateMutability": "payable",
      "type": "function"
    },
    {
      "inputs": [
        {
          "internalType": "uint256",
          "name": "newProposalThreshold",
          "type": "uint256"
        }
      ],
      "name": "setProposalThreshold",
      "outputs": [],
      "stateMutability": "nonpayable",
      "type": "function"
    },
    {
      "inputs": [
        {
          "internalType": "uint256",
          "name": "newVotingDelay",
          "type": "uint256"
        }
      ],
      "name": "setVotingDelay",
      "outputs": [],
      "stateMutability": "nonpayable",
      "type": "function"
    },
    {
      "inputs": [
        {
          "internalType": "uint256",
          "name": "newVotingPeriod",
          "type": "uint256"
        }
      ],
      "name": "setVotingPeriod",
      "outputs": [],
      "stateMutability": "nonpayable",
      "type": "function"
    },
    {
      "inputs": [
        {
          "internalType": "uint256",
          "name": "proposalId",
          "type": "uint256"
        }
      ],
      "name": "state",
      "outputs": [
        {
          "internalType": "enum IGovernor.ProposalState",
          "name": "",
          "type": "uint8"
        }
      ],
      "stateMutability": "view",
      "type": "function"
    },
    {
      "inputs": [
        {
          "internalType": "bytes4",
          "name": "interfaceId",
          "type": "bytes4"
        }
      ],
      "name": "supportsInterface",
      "outputs": [
        {
          "internalType": "bool",
          "name": "",
          "type": "bool"
        }
      ],
      "stateMutability": "view",
      "type": "function"
    },
    {
      "inputs": [],
      "name": "token",
      "outputs": [
        {
          "internalType": "contract IERC5805",
          "name": "",
          "type": "address"
        }
      ],
      "stateMutability": "view",
      "type": "function"
    },
    {
      "inputs": [
        {
          "internalType": "uint256",
          "name": "newQuorumNumerator",
          "type": "uint256"
        }
      ],
      "name": "updateQuorumNumerator",
      "outputs": [],
      "stateMutability": "nonpayable",
      "type": "function"
    },
    {
      "inputs": [],
      "name": "version",
      "outputs": [
        {
          "internalType": "string",
          "name": "",
          "type": "string"
        }
      ],
      "stateMutability": "view",
      "type": "function"
    },
    {
      "inputs": [],
      "name": "votingDelay",
      "outputs": [
        {
          "internalType": "uint256",
          "name": "",
          "type": "uint256"
        }
      ],
      "stateMutability": "view",
      "type": "function"
    },
    {
      "inputs": [],
      "name": "votingPeriod",
      "outputs": [
        {
          "internalType": "uint256",
          "name": "",
          "type": "uint256"
        }
      ],
      "stateMutability": "view",
      "type": "function"
    },
    {
      "stateMutability": "payable",
      "type": "receive"
    }
  ],
  "transactionHash": "0x3718da1bb048bdd16e1d82e9c20c387dc71bdcca86caaa75ad42f3a3d2e0ce26",
  "args": [
    "0x3c7066883d2314bEEEa098D546A004Fd4b4c10D4"
  ],
  "numDeployments": 1,
  "solcInputHash": "bb8c56362223b1ae983aaa715f82768e",
  "bytecode": "0x6101806040523480156200001257600080fd5b5060405162004ad138038062004ad18339810160408190526200003591620008bd565b6004816104b061546060006040518060400160405280600a81526020016926bca3b7bb32b93737b960b11b81525080620000746200017e60201b60201c565b6200008182600062000199565b610120526200009281600162000199565b61014052815160208084019190912060e052815190820120610100524660a0526200012060e05161010051604080517f8b73c3c69bb8fe3d512ecc4cf759cc79239f7b179b0ffacaa9a75d522b39400f60208201529081019290925260608201524660808201523060a082015260009060c00160405160208183030381529060405280519060200120905090565b60805250503060c05260026200013782826200098d565b5062000145905083620001d2565b620001508262000213565b6200015b81620002ba565b5050506001600160a01b0316610160526200017681620002fb565b505062000b1a565b6040805180820190915260018152603160f81b602082015290565b6000602083511015620001b957620001b1836200047a565b9050620001cc565b81620001c684826200098d565b5060ff90505b92915050565b60065460408051918252602082018390527fc565b045403dc03c2eea82b81a0465edad9e2e7fc4d97e11421c209da93d7a93910160405180910390a1600655565b60008111620002795760405162461bcd60e51b815260206004820152602760248201527f476f7665726e6f7253657474696e67733a20766f74696e6720706572696f6420604482015266746f6f206c6f7760c81b60648201526084015b60405180910390fd5b60075460408051918252602082018390527f7e3f7f0708a84de9203036abaa450dccc85ad5ff52f78c170f3edb55cf5e8828910160405180910390a1600755565b60085460408051918252602082018390527fccb45da8d5717e6c4544694297c4ba5cf151d455c9bb0ed4fc7a38411bc05461910160405180910390a1600855565b6064811115620003805760405162461bcd60e51b815260206004820152604360248201527f476f7665726e6f72566f74657351756f72756d4672616374696f6e3a2071756f60448201527f72756d4e756d657261746f72206f7665722071756f72756d44656e6f6d696e616064820152623a37b960e91b608482015260a40162000270565b60006200038c620004bd565b905080158015906200039e5750600b54155b1562000406576040805180820190915260008152600b9060208101620003c484620004ec565b6001600160e01b0390811690915282546001810184556000938452602093849020835194909301519091166401000000000263ffffffff909316929092179101555b6200043b62000426620004186200055b565b65ffffffffffff16620005d2565b6200043184620004ec565b600b919062000639565b505060408051828152602081018490527f0553476bf02ef2726e8ce5ced78d63e26e602e4a2257b1f559418e24b4633997910160405180910390a15050565b600080829050601f81511115620004a8578260405163305a27a960e01b815260040162000270919062000a59565b8051620004b58262000aa9565b179392505050565b600b5460009015620004e357620004d5600b62000656565b6001600160e01b0316905090565b600a545b905090565b60006001600160e01b03821115620005575760405162461bcd60e51b815260206004820152602760248201527f53616665436173743a2076616c756520646f65736e27742066697420696e20326044820152663234206269747360c81b606482015260840162000270565b5090565b6000610160516001600160a01b03166391ddadf46040518163ffffffff1660e01b8152600401602060405180830381865afa925050508015620005bd575060408051601f3d908101601f19168201909252620005ba9181019062000ace565b60015b620005cd57620004e743620006a4565b919050565b600063ffffffff821115620005575760405162461bcd60e51b815260206004820152602660248201527f53616665436173743a2076616c756520646f65736e27742066697420696e203360448201526532206269747360d01b606482015260840162000270565b600080620006498585856200070d565b915091505b935093915050565b805460009080156200069a5762000682836200067460018462000af8565b600091825260209091200190565b5464010000000090046001600160e01b03166200069d565b60005b9392505050565b600065ffffffffffff821115620005575760405162461bcd60e51b815260206004820152602660248201527f53616665436173743a2076616c756520646f65736e27742066697420696e203460448201526538206269747360d01b606482015260840162000270565b825460009081908015620008625760006200072f876200067460018562000af8565b60408051808201909152905463ffffffff8082168084526401000000009092046001600160e01b031660208401529192509087161015620007b35760405162461bcd60e51b815260206004820152601b60248201527f436865636b706f696e743a2064656372656173696e67206b6579730000000000604482015260640162000270565b805163ffffffff808816911603620008015784620007d8886200067460018662000af8565b80546001600160e01b03929092166401000000000263ffffffff90921691909117905562000851565b6040805180820190915263ffffffff80881682526001600160e01b0380881660208085019182528b54600181018d5560008d81529190912094519151909216640100000000029216919091179101555b6020015192508391506200064e9050565b50506040805180820190915263ffffffff80851682526001600160e01b0380851660208085019182528854600181018a5560008a8152918220955192519093166401000000000291909316179201919091559050816200064e565b600060208284031215620008d057600080fd5b81516001600160a01b03811681146200069d57600080fd5b634e487b7160e01b600052604160045260246000fd5b600181811c908216806200091357607f821691505b6020821081036200093457634e487b7160e01b600052602260045260246000fd5b50919050565b601f8211156200098857600081815260208120601f850160051c81016020861015620009635750805b601f850160051c820191505b8181101562000984578281556001016200096f565b5050505b505050565b81516001600160401b03811115620009a957620009a9620008e8565b620009c181620009ba8454620008fe565b846200093a565b602080601f831160018114620009f95760008415620009e05750858301515b600019600386901b1c1916600185901b17855562000984565b600085815260208120601f198616915b8281101562000a2a5788860151825594840194600190910190840162000a09565b508582101562000a495787850151600019600388901b60f8161c191681555b5050505050600190811b01905550565b600060208083528351808285015260005b8181101562000a885785810183015185820160400152820162000a6a565b506000604082860101526040601f19601f8301168501019250505092915050565b80516020808301519190811015620009345760001960209190910360031b1b16919050565b60006020828403121562000ae157600080fd5b815165ffffffffffff811681146200069d57600080fd5b81810381811115620001cc57634e487b7160e01b600052601160045260246000fd5b60805160a05160c05160e05161010051610120516101405161016051613f3562000b9c600039600081816108b401528181610f7701528181611645015281816123840152612548015260006115f1015260006115c7015260006126a901526000612681015260006125dc01526000612606015260006126300152613f356000f3fe6080604052600436106102555760003560e01c806370b0f66011610139578063c01f9e37116100b6578063ea0217cf1161007a578063ea0217cf146107f6578063eb9019d414610816578063ece40cc114610836578063f23a6e6114610856578063f8ce560a14610882578063fc0c546a146108a257600080fd5b8063c01f9e3714610710578063c28bc2fa14610749578063c59057e41461075c578063dd4e2ba51461077c578063deaaa7cc146107c257600080fd5b806397c3d334116100fd57806397c3d334146106865780639a802a6d1461069a578063a7713a70146106ba578063b58131b0146106cf578063bc197c81146106e457600080fd5b806370b0f660146105d25780637b3c71d3146105f25780637d5e81e21461061257806384b0196e1461063257806391ddadf41461065a57600080fd5b80633932abb1116101d25780634bf5d7e9116101965780634bf5d7e9146104de578063544ffc9c146104f357806354fd4d501461054857806356781388146105725780635f398a141461059257806360c4247f146105b257600080fd5b80633932abb11461043c5780633bccf4fd146104515780633e4f49e614610471578063438596321461049e578063452115d6146104be57600080fd5b8063143489d011610219578063143489d014610326578063150b7a021461037b5780632656227d146103bf5780632d63f693146103d25780632fe3e2611461040857600080fd5b806301ffc9a71461026c57806302a251a3146102a157806303420181146102c457806306f3f9e6146102e457806306fdde031461030457600080fd5b3661026757005b60405180910390fd5b005b600080fd5b34801561027857600080fd5b5061028c610287366004613082565b6108d6565b60405190151581526020015b60405180910390f35b3480156102ad57600080fd5b506102b6610973565b604051908152602001610298565b3480156102d057600080fd5b506102b66102df3660046131d0565b610983565b3480156102f057600080fd5b506102656102ff366004613276565b610a7b565b34801561031057600080fd5b50610319610abd565b60405161029891906132df565b34801561033257600080fd5b50610363610341366004613276565b600090815260036020526040902054600160401b90046001600160a01b031690565b6040516001600160a01b039091168152602001610298565b34801561038757600080fd5b506103a6610396366004613309565b630a85bd0160e11b949350505050565b6040516001600160e01b03199091168152602001610298565b6102b66103cd3660046134da565b610b4f565b3480156103de57600080fd5b506102b66103ed366004613276565b6000908152600360205260409020546001600160401b031690565b34801561041457600080fd5b506102b67fb3b3f3b703cd84ce352197dcff232b1b5d3cfb2025ce47cf04742d0651f1af8881565b34801561044857600080fd5b506102b6610c7b565b34801561045d57600080fd5b506102b661046c366004613569565b610c86565b34801561047d57600080fd5b5061049161048c366004613276565b610cfc565b60405161029891906135cd565b3480156104aa57600080fd5b5061028c6104b93660046135f5565b610e3c565b3480156104ca57600080fd5b506102b66104d93660046134da565b610e6c565b3480156104ea57600080fd5b50610319610f73565b3480156104ff57600080fd5b5061052d61050e366004613276565b6000908152600960205260409020805460018201546002909201549092565b60408051938452602084019290925290820152606001610298565b34801561055457600080fd5b506040805180820190915260018152603160f81b6020820152610319565b34801561057e57600080fd5b506102b661058d366004613621565b611035565b34801561059e57600080fd5b506102b66105ad366004613644565b61105e565b3480156105be57600080fd5b506102b66105cd366004613276565b6110a8565b3480156105de57600080fd5b506102656105ed366004613276565b611159565b3480156105fe57600080fd5b506102b661060d3660046136c7565b611198565b34801561061e57600080fd5b506102b661062d366004613720565b6111e0565b34801561063e57600080fd5b506106476115b9565b604051610298979695949392919061380f565b34801561066657600080fd5b5061066f611641565b60405165ffffffffffff9091168152602001610298565b34801561069257600080fd5b5060646102b6565b3480156106a657600080fd5b506102b66106b5366004613871565b6116ca565b3480156106c657600080fd5b506102b66116e1565b3480156106db57600080fd5b506102b661170b565b3480156106f057600080fd5b506103a66106ff3660046138c7565b63bc197c8160e01b95945050505050565b34801561071c57600080fd5b506102b661072b366004613276565b6000908152600360205260409020600101546001600160401b031690565b610265610757366004613956565b611716565b34801561076857600080fd5b506102b66107773660046134da565b6117dd565b34801561078857600080fd5b506040805180820190915260208082527f737570706f72743d627261766f2671756f72756d3d666f722c6162737461696e90820152610319565b3480156107ce57600080fd5b506102b67f150214d74d59b7d1e90c73fc22ef3d991dd0a76b046543d4d80ab92d2a50328f81565b34801561080257600080fd5b50610265610811366004613276565b611817565b34801561082257600080fd5b506102b6610831366004613997565b611856565b34801561084257600080fd5b50610265610851366004613276565b611877565b34801561086257600080fd5b506103a66108713660046139c1565b63f23a6e6160e01b95945050505050565b34801561088e57600080fd5b506102b661089d366004613276565b6118b6565b3480156108ae57600080fd5b506103637f000000000000000000000000000000000000000000000000000000000000000081565b600063288ace0360e11b6318df743f60e31b63bf26d89760e01b6379dd796f60e01b6001600160e01b0319861682148061091c57506001600160e01b0319868116908216145b8061093357506001600160e01b0319868116908516145b8061094e57506001600160e01b03198616630271189760e51b145b8061096957506301ffc9a760e01b6001600160e01b03198716145b9695505050505050565b600061097e60075490565b905090565b600080610a27610a1f7fb3b3f3b703cd84ce352197dcff232b1b5d3cfb2025ce47cf04742d0651f1af888c8c8c8c6040516109bf929190613a25565b60405180910390208b80519060200120604051602001610a04959493929190948552602085019390935260ff9190911660408401526060830152608082015260a00190565b604051602081830303815290604052805190602001206118c1565b8686866118ee565b9050610a6d8a828b8b8b8080601f0160208091040260200160405190810160405280939291908181526020018383808284376000920191909152508d925061190c915050565b9a9950505050505050505050565b333014610a9a5760405162461bcd60e51b815260040161025c90613a35565b610ab1565b80610aaa6004611a61565b03610a9f57505b610aba81611ae0565b50565b606060028054610acc90613a6c565b80601f0160208091040260200160405190810160405280929190818152602001828054610af890613a6c565b8015610b455780601f10610b1a57610100808354040283529160200191610b45565b820191906000526020600020905b815481529060010190602001808311610b2857829003601f168201915b5050505050905090565b600080610b5e868686866117dd565b90506000610b6b82610cfc565b90506004816007811115610b8157610b816135b7565b1480610b9e57506005816007811115610b9c57610b9c6135b7565b145b610bf45760405162461bcd60e51b815260206004820152602160248201527f476f7665726e6f723a2070726f706f73616c206e6f74207375636365737366756044820152601b60fa1b606482015260840161025c565b60008281526003602052604090819020600201805460ff19166001179055517f712ae1383f79ac853f8d882153778e0260ef8f03b504e2866e0593e04d2b291f90610c429084815260200190565b60405180910390a1610c578288888888611c4e565b610c648288888888611cdb565b610c718288888888611c4e565b5095945050505050565b600061097e60065490565b604080517f150214d74d59b7d1e90c73fc22ef3d991dd0a76b046543d4d80ab92d2a50328f602082015290810186905260ff851660608201526000908190610cd490610a1f90608001610a04565b9050610cf187828860405180602001604052806000815250611dfd565b979650505050505050565b6000818152600360205260408120600281015460ff1615610d205750600792915050565b6002810154610100900460ff1615610d3b5750600292915050565b6000838152600360205260408120546001600160401b031690819003610da35760405162461bcd60e51b815260206004820152601d60248201527f476f7665726e6f723a20756e6b6e6f776e2070726f706f73616c206964000000604482015260640161025c565b6000610dad611641565b65ffffffffffff169050808210610dc957506000949350505050565b6000858152600360205260409020600101546001600160401b0316818110610df75750600195945050505050565b610e0086611e29565b8015610e1f575060008681526009602052604090208054600190910154115b15610e305750600495945050505050565b50600395945050505050565b60008281526009602090815260408083206001600160a01b038516845260030190915290205460ff165b92915050565b600080610e7b868686866117dd565b90506000610e8882610cfc565b6007811115610e9957610e996135b7565b14610ee65760405162461bcd60e51b815260206004820152601c60248201527f476f7665726e6f723a20746f6f206c61746520746f2063616e63656c00000000604482015260640161025c565b600081815260036020526040902054600160401b90046001600160a01b0316336001600160a01b031614610f675760405162461bcd60e51b815260206004820152602260248201527f476f7665726e6f723a206f6e6c792070726f706f7365722063616e2063616e63604482015261195b60f21b606482015260840161025c565b61096986868686611e75565b60607f00000000000000000000000000000000000000000000000000000000000000006001600160a01b0316634bf5d7e96040518163ffffffff1660e01b8152600401600060405180830381865afa925050508015610ff457506040513d6000823e601f3d908101601f19168201604052610ff19190810190613aa6565b60015b611030575060408051808201909152601d81527f6d6f64653d626c6f636b6e756d6265722666726f6d3d64656661756c74000000602082015290565b919050565b60008033905061105684828560405180602001604052806000815250611dfd565b949350505050565b600080339050610cf187828888888080601f0160208091040260200160405190810160405280939291908181526020018383808284376000920191909152508a925061190c915050565b600b546000908082036110bf575050600a54919050565b6000600b6110ce600184613b29565b815481106110de576110de613b3c565b60009182526020918290206040805180820190915291015463ffffffff8116808352600160201b9091046001600160e01b0316928201929092529150841061113457602001516001600160e01b03169392505050565b61114861114085611f93565b600b90611ffc565b6001600160e01b0316949350505050565b3330146111785760405162461bcd60e51b815260040161025c90613a35565b61118f565b806111886004611a61565b0361117d57505b610aba816120af565b60008033905061096986828787878080601f016020809104026020016040519081016040528093929190818152602001838380828437600092019190915250611dfd92505050565b6000336111ed81846120f0565b6112395760405162461bcd60e51b815260206004820152601d60248201527f476f7665726e6f723a2070726f706f7365722072657374726963746564000000604482015260640161025c565b6000611243611641565b65ffffffffffff16905061125561170b565b61126483610831600185613b29565b10156112cc5760405162461bcd60e51b815260206004820152603160248201527f476f7665726e6f723a2070726f706f73657220766f7465732062656c6f7720706044820152701c9bdc1bdcd85b081d1a1c995cda1bdb19607a1b606482015260840161025c565b60006112e188888888805190602001206117dd565b905086518851146113045760405162461bcd60e51b815260040161025c90613b52565b85518851146113255760405162461bcd60e51b815260040161025c90613b52565b60008851116113765760405162461bcd60e51b815260206004820152601860248201527f476f7665726e6f723a20656d7074792070726f706f73616c0000000000000000604482015260640161025c565b6000818152600360205260409020546001600160401b0316156113e55760405162461bcd60e51b815260206004820152602160248201527f476f7665726e6f723a2070726f706f73616c20616c72656164792065786973746044820152607360f81b606482015260840161025c565b60006113ef610c7b565b6113f99084613b93565b90506000611405610973565b61140f9083613b93565b90506040518060e00160405280611425846121e1565b6001600160401b031681526001600160a01b038716602082015260006040820152606001611452836121e1565b6001600160401b039081168252600060208084018290526040808501839052606094850183905288835260038252918290208551815492870151878501519186166001600160e01b031990941693909317600160401b6001600160a01b039094168402176001600160e01b0316600160e01b60e09290921c91909102178155938501516080860151908416921c0217600183015560a08301516002909201805460c09094015161ffff1990941692151561ff00191692909217610100931515939093029290921790558a517f7d84a6263ae0d98d3329bd7b46bb4e8d6f98cd35a7adb45c274c8b7fd5ebd5e091859188918e918e9181111561155657611556613105565b60405190808252806020026020018201604052801561158957816020015b60608152602001906001900390816115745790505b508d88888f6040516115a399989796959493929190613c37565b60405180910390a1509098975050505050505050565b6000606080828080836115ec7f000000000000000000000000000000000000000000000000000000000000000083612249565b6116177f00000000000000000000000000000000000000000000000000000000000000006001612249565b60408051600080825260208201909252600f60f81b9b939a50919850469750309650945092509050565b60007f00000000000000000000000000000000000000000000000000000000000000006001600160a01b03166391ddadf46040518163ffffffff1660e01b8152600401602060405180830381865afa9250505080156116bd575060408051601f3d908101601f191682019092526116ba91810190613d0e565b60015b6110305761097e436122f4565b60006116d784848461235b565b90505b9392505050565b600b5460009015611704576116f6600b6123f1565b6001600160e01b0316905090565b50600a5490565b600061097e60085490565b3330146117355760405162461bcd60e51b815260040161025c90613a35565b61174c565b806117456004611a61565b0361173a57505b600080856001600160a01b031685858560405161176a929190613a25565b60006040518083038185875af1925050503d80600081146117a7576040519150601f19603f3d011682016040523d82523d6000602084013e6117ac565b606091505b50915091506117d48282604051806060016040528060288152602001613eb16028913961242a565b50505050505050565b6000848484846040516020016117f69493929190613d36565b60408051601f19818403018152919052805160209091012095945050505050565b3330146118365760405162461bcd60e51b815260040161025c90613a35565b61184d565b806118466004611a61565b0361183b57505b610aba81612443565b60006116da838361187260408051602081019091526000815290565b61235b565b3330146118965760405162461bcd60e51b815260040161025c90613a35565b6118ad565b806118a66004611a61565b0361189b57505b610aba816124e4565b6000610e6682612525565b6000610e666118ce6125cf565b8360405161190160f01b8152600281019290925260228201526042902090565b60008060006118ff878787876126fa565b91509150610c71816127be565b6000858152600360205260408120600161192588610cfc565b6007811115611936576119366135b7565b1461198f5760405162461bcd60e51b815260206004820152602360248201527f476f7665726e6f723a20766f7465206e6f742063757272656e746c792061637460448201526269766560e81b606482015260840161025c565b80546000906119a99088906001600160401b03168661235b565b90506119b88888888488612908565b8351600003611a0d57866001600160a01b03167fb8e138887d0aa13bab447e82de9d5c1777041ecd21ca36ba824ff1e6c07ddda489888489604051611a009493929190613d81565b60405180910390a2610cf1565b866001600160a01b03167fe2babfbac5889a709b63bb7f598b324e08bc5a4fb9ec647fb3cbc9ec07eb87128988848989604051611a4e959493929190613da9565b60405180910390a2979650505050505050565b6000611a7c8254600f81810b600160801b909204900b131590565b15611a9a57604051631ed9509560e11b815260040160405180910390fd5b508054600f0b6000818152600180840160205260408220805492905583546fffffffffffffffffffffffffffffffff191692016001600160801b03169190911790915590565b6064811115611b635760405162461bcd60e51b815260206004820152604360248201527f476f7665726e6f72566f74657351756f72756d4672616374696f6e3a2071756f60448201527f72756d4e756d657261746f72206f7665722071756f72756d44656e6f6d696e616064820152623a37b960e91b608482015260a40161025c565b6000611b6d6116e1565b90508015801590611b7e5750600b54155b15611be2576040805180820190915260008152600b9060208101611ba184612a82565b6001600160e01b039081169091528254600181018455600093845260209384902083519490930151909116600160201b0263ffffffff909316929092179101555b611c0f611bfd611bf0611641565b65ffffffffffff16611f93565b611c0684612a82565b600b9190612aeb565b505060408051828152602081018490527f0553476bf02ef2726e8ce5ced78d63e26e602e4a2257b1f559418e24b4633997910160405180910390a15050565b611cd4565b8451811015611cd257306001600160a01b0316858281518110611c7857611c78613b3c565b60200260200101516001600160a01b031603611cc257611cc2838281518110611ca357611ca3613b3c565b6020026020010151805190602001206004612b0690919063ffffffff16565b611ccb81613def565b9050611c53565b505b5050505050565b6000604051806060016040528060278152602001613ed960279139905060005b85518110156117d457600080878381518110611d1957611d19613b3c565b60200260200101516001600160a01b0316878481518110611d3c57611d3c613b3c565b6020026020010151878581518110611d5657611d56613b3c565b6020026020010151604051611d6b9190613e08565b60006040518083038185875af1925050503d8060008114611da8576040519150601f19603f3d011682016040523d82523d6000602084013e611dad565b606091505b5091509150611ddc60405180604001604052806008815260200167029bab1b1b2b9b9960c51b81525083612b42565b611de782828661242a565b5050508080611df590613def565b915050611cfb565b6000611e2085858585611e1b60408051602081019091526000815290565b61190c565b95945050505050565b600081815260096020526040812060028101546001820154611e4b9190613b93565b600084815260036020526040902054611e6c906001600160401b03166118b6565b11159392505050565b600080611e84868686866117dd565b90506000611e9182610cfc565b90506002816007811115611ea757611ea76135b7565b14158015611ec757506006816007811115611ec457611ec46135b7565b14155b8015611ee557506007816007811115611ee257611ee26135b7565b14155b611f315760405162461bcd60e51b815260206004820152601d60248201527f476f7665726e6f723a2070726f706f73616c206e6f7420616374697665000000604482015260640161025c565b60008281526003602052604090819020600201805461ff001916610100179055517f789cf55be980739dad1d0699b93b58e806b51c9d96619bfa8fe0a28abaa7b30c90611f819084815260200190565b60405180910390a15095945050505050565b600063ffffffff821115611ff85760405162461bcd60e51b815260206004820152602660248201527f53616665436173743a2076616c756520646f65736e27742066697420696e203360448201526532206269747360d01b606482015260840161025c565b5090565b81546000908181600581111561205957600061201784612b8b565b6120219085613b29565b60008881526020902090915081015463ffffffff908116908716101561204957809150612057565b612054816001613b93565b92505b505b600061206787878585612c73565b905080156120a25761208c8761207e600184613b29565b600091825260209091200190565b54600160201b90046001600160e01b0316610cf1565b6000979650505050505050565b60065460408051918252602082018390527fc565b045403dc03c2eea82b81a0465edad9e2e7fc4d97e11421c209da93d7a93910160405180910390a1600655565b80516000906034811015612108576001915050610e66565b82810160131901516001600160a01b031981166b046e0e4dee0dee6cae47a60f60a31b1461213b57600192505050610e66565b600080612149602885613b29565b90505b838110156121c05760008061218088848151811061216c5761216c613b3c565b01602001516001600160f81b031916612cd1565b91509150816121985760019650505050505050610e66565b8060ff166004856001600160a01b0316901b1793505050806121b990613def565b905061214c565b50856001600160a01b0316816001600160a01b031614935050505092915050565b60006001600160401b03821115611ff85760405162461bcd60e51b815260206004820152602660248201527f53616665436173743a2076616c756520646f65736e27742066697420696e203660448201526534206269747360d01b606482015260840161025c565b606060ff83146122635761225c83612d63565b9050610e66565b81805461226f90613a6c565b80601f016020809104026020016040519081016040528092919081815260200182805461229b90613a6c565b80156122e85780601f106122bd576101008083540402835291602001916122e8565b820191906000526020600020905b8154815290600101906020018083116122cb57829003601f168201915b50505050509050610e66565b600065ffffffffffff821115611ff85760405162461bcd60e51b815260206004820152602660248201527f53616665436173743a2076616c756520646f65736e27742066697420696e203460448201526538206269747360d01b606482015260840161025c565b604051630748d63560e31b81526001600160a01b038481166004830152602482018490526000917f000000000000000000000000000000000000000000000000000000000000000090911690633a46b1a890604401602060405180830381865afa1580156123cd573d6000803e3d6000fd5b505050506040513d601f19601f820116820180604052508101906116d79190613e24565b805460009080156124215761240b8361207e600184613b29565b54600160201b90046001600160e01b03166116da565b60009392505050565b606083156124395750816116da565b6116da8383612da2565b600081116124a35760405162461bcd60e51b815260206004820152602760248201527f476f7665726e6f7253657474696e67733a20766f74696e6720706572696f6420604482015266746f6f206c6f7760c81b606482015260840161025c565b60075460408051918252602082018390527f7e3f7f0708a84de9203036abaa450dccc85ad5ff52f78c170f3edb55cf5e8828910160405180910390a1600755565b60085460408051918252602082018390527fccb45da8d5717e6c4544694297c4ba5cf151d455c9bb0ed4fc7a38411bc05461910160405180910390a1600855565b60006064612532836110a8565b604051632394e7a360e21b8152600481018590527f00000000000000000000000000000000000000000000000000000000000000006001600160a01b031690638e539e8c90602401602060405180830381865afa158015612597573d6000803e3d6000fd5b505050506040513d601f19601f820116820180604052508101906125bb9190613e24565b6125c59190613e3d565b610e669190613e6a565b6000306001600160a01b037f00000000000000000000000000000000000000000000000000000000000000001614801561262857507f000000000000000000000000000000000000000000000000000000000000000046145b1561265257507f000000000000000000000000000000000000000000000000000000000000000090565b61097e604080517f8b73c3c69bb8fe3d512ecc4cf759cc79239f7b179b0ffacaa9a75d522b39400f60208201527f0000000000000000000000000000000000000000000000000000000000000000918101919091527f000000000000000000000000000000000000000000000000000000000000000060608201524660808201523060a082015260009060c00160405160208183030381529060405280519060200120905090565b6000807f7fffffffffffffffffffffffffffffff5d576e7357a4501ddfe92f46681b20a083111561273157506000905060036127b5565b6040805160008082526020820180845289905260ff881692820192909252606081018690526080810185905260019060a0016020604051602081039080840390855afa158015612785573d6000803e3d6000fd5b5050604051601f1901519150506001600160a01b0381166127ae576000600192509250506127b5565b9150600090505b94509492505050565b60008160048111156127d2576127d26135b7565b036127da5750565b60018160048111156127ee576127ee6135b7565b0361283b5760405162461bcd60e51b815260206004820152601860248201527f45434453413a20696e76616c6964207369676e61747572650000000000000000604482015260640161025c565b600281600481111561284f5761284f6135b7565b0361289c5760405162461bcd60e51b815260206004820152601f60248201527f45434453413a20696e76616c6964207369676e6174757265206c656e67746800604482015260640161025c565b60038160048111156128b0576128b06135b7565b03610aba5760405162461bcd60e51b815260206004820152602260248201527f45434453413a20696e76616c6964207369676e6174757265202773272076616c604482015261756560f01b606482015260840161025c565b60008581526009602090815260408083206001600160a01b0388168452600381019092529091205460ff16156129905760405162461bcd60e51b815260206004820152602760248201527f476f7665726e6f72566f74696e6753696d706c653a20766f746520616c726561604482015266191e4818d85cdd60ca1b606482015260840161025c565b6001600160a01b03851660009081526003820160205260409020805460ff1916600117905560ff84166129dc57828160000160008282546129d19190613b93565b90915550611cd29050565b60001960ff8516016129fc57828160010160008282546129d19190613b93565b60011960ff851601612a1c57828160020160008282546129d19190613b93565b60405162461bcd60e51b815260206004820152603560248201527f476f7665726e6f72566f74696e6753696d706c653a20696e76616c69642076616044820152746c756520666f7220656e756d20566f74655479706560581b606482015260840161025c565b60006001600160e01b03821115611ff85760405162461bcd60e51b815260206004820152602760248201527f53616665436173743a2076616c756520646f65736e27742066697420696e20326044820152663234206269747360c81b606482015260840161025c565b600080612af9858585612dcc565b915091505b935093915050565b8154600160801b90819004600f0b6000818152600180860160205260409091209390935583546001600160801b03908116939091011602179055565b612b878282604051602401612b58929190613e8c565b60408051601f198184030181529190526020810180516001600160e01b031663c3b5563560e01b179052612f6b565b5050565b600081600003612b9d57506000919050565b60006001612baa84612f74565b901c6001901b90506001818481612bc357612bc3613e54565b048201901c90506001818481612bdb57612bdb613e54565b048201901c90506001818481612bf357612bf3613e54565b048201901c90506001818481612c0b57612c0b613e54565b048201901c90506001818481612c2357612c23613e54565b048201901c90506001818481612c3b57612c3b613e54565b048201901c90506001818481612c5357612c53613e54565b048201901c90506116da81828581612c6d57612c6d613e54565b04613008565b60005b81831015612cc9576000612c8a848461301e565b60008781526020902090915063ffffffff86169082015463ffffffff161115612cb557809250612cc3565b612cc0816001613b93565b93505b50612c76565b509392505050565b60008060f883901c602f81118015612cec5750603a8160ff16105b15612d0157600194602f199091019350915050565b8060ff166040108015612d17575060478160ff16105b15612d2c576001946036199091019350915050565b8060ff166060108015612d42575060678160ff16105b15612d57576001946056199091019350915050565b50600093849350915050565b60606000612d7083613039565b604080516020808252818301909252919250600091906020820181803683375050509182525060208101929092525090565b815115612db25781518083602001fd5b8060405162461bcd60e51b815260040161025c91906132df565b825460009081908015612f12576000612dea8761207e600185613b29565b60408051808201909152905463ffffffff808216808452600160201b9092046001600160e01b031660208401529192509087161015612e6b5760405162461bcd60e51b815260206004820152601b60248201527f436865636b706f696e743a2064656372656173696e67206b6579730000000000604482015260640161025c565b805163ffffffff808816911603612eb35784612e8c8861207e600186613b29565b80546001600160e01b0392909216600160201b0263ffffffff909216919091179055612f02565b6040805180820190915263ffffffff80881682526001600160e01b0380881660208085019182528b54600181018d5560008d81529190912094519151909216600160201b029216919091179101555b602001519250839150612afe9050565b50506040805180820190915263ffffffff80851682526001600160e01b0380851660208085019182528854600181018a5560008a815291822095519251909316600160201b029190931617920191909155905081612afe565b610aba81613061565b600080608083901c15612f8957608092831c92015b604083901c15612f9b57604092831c92015b602083901c15612fad57602092831c92015b601083901c15612fbf57601092831c92015b600883901c15612fd157600892831c92015b600483901c15612fe357600492831c92015b600283901c15612ff557600292831c92015b600183901c15610e665760010192915050565b600081831061301757816116da565b5090919050565b600061302d6002848418613e6a565b6116da90848416613b93565b600060ff8216601f811115610e6657604051632cd44ac360e21b815260040160405180910390fd5b60006a636f6e736f6c652e6c6f679050600080835160208501845afa505050565b60006020828403121561309457600080fd5b81356001600160e01b0319811681146116da57600080fd5b803560ff8116811461103057600080fd5b60008083601f8401126130cf57600080fd5b5081356001600160401b038111156130e657600080fd5b6020830191508360208285010111156130fe57600080fd5b9250929050565b634e487b7160e01b600052604160045260246000fd5b604051601f8201601f191681016001600160401b038111828210171561314357613143613105565b604052919050565b60006001600160401b0382111561316457613164613105565b50601f01601f191660200190565b60006131856131808461314b565b61311b565b905082815283838301111561319957600080fd5b828260208301376000602084830101529392505050565b600082601f8301126131c157600080fd5b6116da83833560208501613172565b60008060008060008060008060e0898b0312156131ec57600080fd5b883597506131fc60208a016130ac565b965060408901356001600160401b038082111561321857600080fd5b6132248c838d016130bd565b909850965060608b013591508082111561323d57600080fd5b5061324a8b828c016131b0565b94505061325960808a016130ac565b925060a0890135915060c089013590509295985092959890939650565b60006020828403121561328857600080fd5b5035919050565b60005b838110156132aa578181015183820152602001613292565b50506000910152565b600081518084526132cb81602086016020860161328f565b601f01601f19169290920160200192915050565b6020815260006116da60208301846132b3565b80356001600160a01b038116811461103057600080fd5b6000806000806080858703121561331f57600080fd5b613328856132f2565b9350613336602086016132f2565b92506040850135915060608501356001600160401b0381111561335857600080fd5b613364878288016131b0565b91505092959194509250565b60006001600160401b0382111561338957613389613105565b5060051b60200190565b600082601f8301126133a457600080fd5b813560206133b461318083613370565b82815260059290921b840181019181810190868411156133d357600080fd5b8286015b848110156133f5576133e8816132f2565b83529183019183016133d7565b509695505050505050565b600082601f83011261341157600080fd5b8135602061342161318083613370565b82815260059290921b8401810191818101908684111561344057600080fd5b8286015b848110156133f55780358352918301918301613444565b600082601f83011261346c57600080fd5b8135602061347c61318083613370565b82815260059290921b8401810191818101908684111561349b57600080fd5b8286015b848110156133f55780356001600160401b038111156134be5760008081fd5b6134cc8986838b01016131b0565b84525091830191830161349f565b600080600080608085870312156134f057600080fd5b84356001600160401b038082111561350757600080fd5b61351388838901613393565b9550602087013591508082111561352957600080fd5b61353588838901613400565b9450604087013591508082111561354b57600080fd5b506135588782880161345b565b949793965093946060013593505050565b600080600080600060a0868803121561358157600080fd5b85359450613591602087016130ac565b935061359f604087016130ac565b94979396509394606081013594506080013592915050565b634e487b7160e01b600052602160045260246000fd5b60208101600883106135ef57634e487b7160e01b600052602160045260246000fd5b91905290565b6000806040838503121561360857600080fd5b82359150613618602084016132f2565b90509250929050565b6000806040838503121561363457600080fd5b82359150613618602084016130ac565b60008060008060006080868803121561365c57600080fd5b8535945061366c602087016130ac565b935060408601356001600160401b038082111561368857600080fd5b61369489838a016130bd565b909550935060608801359150808211156136ad57600080fd5b506136ba888289016131b0565b9150509295509295909350565b600080600080606085870312156136dd57600080fd5b843593506136ed602086016130ac565b925060408501356001600160401b0381111561370857600080fd5b613714878288016130bd565b95989497509550505050565b6000806000806080858703121561373657600080fd5b84356001600160401b038082111561374d57600080fd5b61375988838901613393565b9550602087013591508082111561376f57600080fd5b61377b88838901613400565b9450604087013591508082111561379157600080fd5b61379d8883890161345b565b935060608701359150808211156137b357600080fd5b508501601f810187136137c557600080fd5b61336487823560208401613172565b600081518084526020808501945080840160005b83811015613804578151875295820195908201906001016137e8565b509495945050505050565b60ff60f81b8816815260e06020820152600061382e60e08301896132b3565b828103604084015261384081896132b3565b606084018890526001600160a01b038716608085015260a0840186905283810360c08501529050610a6d81856137d4565b60008060006060848603121561388657600080fd5b61388f846132f2565b92506020840135915060408401356001600160401b038111156138b157600080fd5b6138bd868287016131b0565b9150509250925092565b600080600080600060a086880312156138df57600080fd5b6138e8866132f2565b94506138f6602087016132f2565b935060408601356001600160401b038082111561391257600080fd5b61391e89838a01613400565b9450606088013591508082111561393457600080fd5b61394089838a01613400565b935060808801359150808211156136ad57600080fd5b6000806000806060858703121561396c57600080fd5b613975856132f2565b93506020850135925060408501356001600160401b0381111561370857600080fd5b600080604083850312156139aa57600080fd5b6139b3836132f2565b946020939093013593505050565b600080600080600060a086880312156139d957600080fd5b6139e2866132f2565b94506139f0602087016132f2565b9350604086013592506060860135915060808601356001600160401b03811115613a1957600080fd5b6136ba888289016131b0565b8183823760009101908152919050565b60208082526018908201527f476f7665726e6f723a206f6e6c79476f7665726e616e63650000000000000000604082015260600190565b600181811c90821680613a8057607f821691505b602082108103613aa057634e487b7160e01b600052602260045260246000fd5b50919050565b600060208284031215613ab857600080fd5b81516001600160401b03811115613ace57600080fd5b8201601f81018413613adf57600080fd5b8051613aed6131808261314b565b818152856020838501011115613b0257600080fd5b611e2082602083016020860161328f565b634e487b7160e01b600052601160045260246000fd5b81810381811115610e6657610e66613b13565b634e487b7160e01b600052603260045260246000fd5b60208082526021908201527f476f7665726e6f723a20696e76616c69642070726f706f73616c206c656e67746040820152600d60fb1b606082015260800190565b80820180821115610e6657610e66613b13565b600081518084526020808501945080840160005b838110156138045781516001600160a01b031687529582019590820190600101613bba565b600082825180855260208086019550808260051b84010181860160005b84811015613c2a57601f19868403018952613c188383516132b3565b98840198925090830190600101613bfc565b5090979650505050505050565b60006101208b8352602060018060a01b038c1681850152816040850152613c608285018c613ba6565b91508382036060850152613c74828b6137d4565b915083820360808501528189518084528284019150828160051b850101838c0160005b83811015613cc557601f19878403018552613cb38383516132b3565b94860194925090850190600101613c97565b505086810360a0880152613cd9818c613bdf565b9450505050508560c08401528460e0840152828103610100840152613cfe81856132b3565b9c9b505050505050505050505050565b600060208284031215613d2057600080fd5b815165ffffffffffff811681146116da57600080fd5b608081526000613d496080830187613ba6565b8281036020840152613d5b81876137d4565b90508281036040840152613d6f8186613bdf565b91505082606083015295945050505050565b84815260ff8416602082015282604082015260806060820152600061096960808301846132b3565b85815260ff8516602082015283604082015260a060608201526000613dd160a08301856132b3565b8281036080840152613de381856132b3565b98975050505050505050565b600060018201613e0157613e01613b13565b5060010190565b60008251613e1a81846020870161328f565b9190910192915050565b600060208284031215613e3657600080fd5b5051919050565b8082028115828204841417610e6657610e66613b13565b634e487b7160e01b600052601260045260246000fd5b600082613e8757634e487b7160e01b600052601260045260246000fd5b500490565b604081526000613e9f60408301856132b3565b90508215156020830152939250505056fe476f7665726e6f723a2072656c617920726576657274656420776974686f7574206d657373616765476f7665726e6f723a2063616c6c20726576657274656420776974686f7574206d657373616765a2646970667358221220231fe25a5fb0f2f94617564f919e8d709247c12971c5448e6cb2552b66e3387b64736f6c63430008130033",
  "devdoc": {
    "errors": {
      "Empty()": [
        {
          "details": "An operation (e.g. {front}) couldn't be completed due to the queue being empty."
        }
      ]
    },
    "events": {
      "EIP712DomainChanged()": {
        "details": "MAY be emitted to signal that the domain could have changed."
      },
      "ProposalCanceled(uint256)": {
        "details": "Emitted when a proposal is canceled."
      },
      "ProposalCreated(uint256,address,address[],uint256[],string[],bytes[],uint256,uint256,string)": {
        "details": "Emitted when a proposal is created."
      },
      "ProposalExecuted(uint256)": {
        "details": "Emitted when a proposal is executed."
      },
      "VoteCast(address,uint256,uint8,uint256,string)": {
        "details": "Emitted when a vote is cast without params. Note: `support` values should be seen as buckets. Their interpretation depends on the voting module used."
      },
      "VoteCastWithParams(address,uint256,uint8,uint256,string,bytes)": {
        "details": "Emitted when a vote is cast with params. Note: `support` values should be seen as buckets. Their interpretation depends on the voting module used. `params` are additional encoded parameters. Their interpepretation also depends on the voting module used."
      }
    },
    "kind": "dev",
    "methods": {
      "CLOCK_MODE()": {
        "details": "Machine-readable description of the clock as specified in EIP-6372."
      },
      "COUNTING_MODE()": {
        "details": "See {IGovernor-COUNTING_MODE}."
      },
      "cancel(address[],uint256[],bytes[],bytes32)": {
        "details": "See {IGovernor-cancel}."
      },
      "castVote(uint256,uint8)": {
        "details": "See {IGovernor-castVote}."
      },
      "castVoteBySig(uint256,uint8,uint8,bytes32,bytes32)": {
        "details": "See {IGovernor-castVoteBySig}."
      },
      "castVoteWithReason(uint256,uint8,string)": {
        "details": "See {IGovernor-castVoteWithReason}."
      },
      "castVoteWithReasonAndParams(uint256,uint8,string,bytes)": {
        "details": "See {IGovernor-castVoteWithReasonAndParams}."
      },
      "castVoteWithReasonAndParamsBySig(uint256,uint8,string,bytes,uint8,bytes32,bytes32)": {
        "details": "See {IGovernor-castVoteWithReasonAndParamsBySig}."
      },
      "clock()": {
        "details": "Clock (as specified in EIP-6372) is set to match the token's clock. Fallback to block numbers if the token does not implement EIP-6372."
      },
      "eip712Domain()": {
        "details": "See {EIP-5267}. _Available since v4.9._"
      },
      "execute(address[],uint256[],bytes[],bytes32)": {
        "details": "See {IGovernor-execute}."
      },
      "getVotes(address,uint256)": {
        "details": "See {IGovernor-getVotes}."
      },
      "getVotesWithParams(address,uint256,bytes)": {
        "details": "See {IGovernor-getVotesWithParams}."
      },
      "hasVoted(uint256,address)": {
        "details": "See {IGovernor-hasVoted}."
      },
      "hashProposal(address[],uint256[],bytes[],bytes32)": {
        "details": "See {IGovernor-hashProposal}. The proposal id is produced by hashing the ABI encoded `targets` array, the `values` array, the `calldatas` array and the descriptionHash (bytes32 which itself is the keccak256 hash of the description string). This proposal id can be produced from the proposal data which is part of the {ProposalCreated} event. It can even be computed in advance, before the proposal is submitted. Note that the chainId and the governor address are not part of the proposal id computation. Consequently, the same proposal (with same operation and same description) will have the same id if submitted on multiple governors across multiple networks. This also means that in order to execute the same operation twice (on the same governor) the proposer will have to change the description in order to avoid proposal id conflicts."
      },
      "name()": {
        "details": "See {IGovernor-name}."
      },
      "onERC1155BatchReceived(address,address,uint256[],uint256[],bytes)": {
        "details": "See {IERC1155Receiver-onERC1155BatchReceived}."
      },
      "onERC1155Received(address,address,uint256,uint256,bytes)": {
        "details": "See {IERC1155Receiver-onERC1155Received}."
      },
      "onERC721Received(address,address,uint256,bytes)": {
        "details": "See {IERC721Receiver-onERC721Received}."
      },
      "proposalDeadline(uint256)": {
        "details": "See {IGovernor-proposalDeadline}."
      },
      "proposalProposer(uint256)": {
        "details": "Returns the account that created a given proposal."
      },
      "proposalSnapshot(uint256)": {
        "details": "See {IGovernor-proposalSnapshot}."
      },
      "proposalVotes(uint256)": {
        "details": "Accessor to the internal vote counts."
      },
      "propose(address[],uint256[],bytes[],string)": {
        "details": "See {IGovernor-propose}. This function has opt-in frontrunning protection, described in {_isValidDescriptionForProposer}."
      },
      "quorumDenominator()": {
        "details": "Returns the quorum denominator. Defaults to 100, but may be overridden."
      },
      "quorumNumerator()": {
        "details": "Returns the current quorum numerator. See {quorumDenominator}."
      },
      "quorumNumerator(uint256)": {
        "details": "Returns the quorum numerator at a specific timepoint. See {quorumDenominator}."
      },
      "relay(address,uint256,bytes)": {
        "details": "Relays a transaction or function call to an arbitrary target. In cases where the governance executor is some contract other than the governor itself, like when using a timelock, this function can be invoked in a governance proposal to recover tokens or Ether that was sent to the governor contract by mistake. Note that if the executor is simply the governor itself, use of `relay` is redundant."
      },
      "setProposalThreshold(uint256)": {
        "details": "Update the proposal threshold. This operation can only be performed through a governance proposal. Emits a {ProposalThresholdSet} event."
      },
      "setVotingDelay(uint256)": {
        "details": "Update the voting delay. This operation can only be performed through a governance proposal. Emits a {VotingDelaySet} event."
      },
      "setVotingPeriod(uint256)": {
        "details": "Update the voting period. This operation can only be performed through a governance proposal. Emits a {VotingPeriodSet} event."
      },
      "state(uint256)": {
        "details": "See {IGovernor-state}."
      },
      "supportsInterface(bytes4)": {
        "details": "See {IERC165-supportsInterface}."
      },
      "updateQuorumNumerator(uint256)": {
        "details": "Changes the quorum numerator. Emits a {QuorumNumeratorUpdated} event. Requirements: - Must be called through a governance proposal. - New numerator must be smaller or equal to the denominator."
      },
      "version()": {
        "details": "See {IGovernor-version}."
      }
    },
    "version": 1
  },
  "userdoc": {
    "kind": "user",
    "methods": {},
    "version": 1
  },
  "storageLayout": {
    "storage": [
      {
        "astId": 7389,
        "contract": "contracts/MyGovernor.sol:MyGovernor",
        "label": "_nameFallback",
        "offset": 0,
        "slot": "0",
        "type": "t_string_storage"
      },
      {
        "astId": 7391,
        "contract": "contracts/MyGovernor.sol:MyGovernor",
        "label": "_versionFallback",
        "offset": 0,
        "slot": "1",
        "type": "t_string_storage"
      },
      {
        "astId": 56,
        "contract": "contracts/MyGovernor.sol:MyGovernor",
        "label": "_name",
        "offset": 0,
        "slot": "2",
        "type": "t_string_storage"
      },
      {
        "astId": 62,
        "contract": "contracts/MyGovernor.sol:MyGovernor",
        "label": "_proposals",
        "offset": 0,
        "slot": "3",
        "type": "t_mapping(t_uint256,t_struct(ProposalCore)54_storage)"
      },
      {
        "astId": 65,
        "contract": "contracts/MyGovernor.sol:MyGovernor",
        "label": "_governanceCall",
        "offset": 0,
        "slot": "4",
        "type": "t_struct(Bytes32Deque)10127_storage"
      },
      {
        "astId": 2162,
        "contract": "contracts/MyGovernor.sol:MyGovernor",
        "label": "_votingDelay",
        "offset": 0,
        "slot": "6",
        "type": "t_uint256"
      },
      {
        "astId": 2164,
        "contract": "contracts/MyGovernor.sol:MyGovernor",
        "label": "_votingPeriod",
        "offset": 0,
        "slot": "7",
        "type": "t_uint256"
      },
      {
        "astId": 2166,
        "contract": "contracts/MyGovernor.sol:MyGovernor",
        "label": "_proposalThreshold",
        "offset": 0,
        "slot": "8",
        "type": "t_uint256"
      },
      {
        "astId": 1954,
        "contract": "contracts/MyGovernor.sol:MyGovernor",
        "label": "_proposalVotes",
        "offset": 0,
        "slot": "9",
        "type": "t_mapping(t_uint256,t_struct(ProposalVote)1949_storage)"
      },
      {
        "astId": 2443,
        "contract": "contracts/MyGovernor.sol:MyGovernor",
        "label": "_quorumNumerator",
        "offset": 0,
        "slot": "10",
        "type": "t_uint256"
      },
      {
        "astId": 2447,
        "contract": "contracts/MyGovernor.sol:MyGovernor",
        "label": "_quorumNumeratorHistory",
        "offset": 0,
        "slot": "11",
        "type": "t_struct(Trace224)5339_storage"
      }
    ],
    "types": {
      "t_address": {
        "encoding": "inplace",
        "label": "address",
        "numberOfBytes": "20"
      },
      "t_array(t_struct(Checkpoint224)5344_storage)dyn_storage": {
        "base": "t_struct(Checkpoint224)5344_storage",
        "encoding": "dynamic_array",
        "label": "struct Checkpoints.Checkpoint224[]",
        "numberOfBytes": "32"
      },
      "t_bool": {
        "encoding": "inplace",
        "label": "bool",
        "numberOfBytes": "1"
      },
      "t_bytes24": {
        "encoding": "inplace",
        "label": "bytes24",
        "numberOfBytes": "24"
      },
      "t_bytes32": {
        "encoding": "inplace",
        "label": "bytes32",
        "numberOfBytes": "32"
      },
      "t_bytes4": {
        "encoding": "inplace",
        "label": "bytes4",
        "numberOfBytes": "4"
      },
      "t_int128": {
        "encoding": "inplace",
        "label": "int128",
        "numberOfBytes": "16"
      },
      "t_mapping(t_address,t_bool)": {
        "encoding": "mapping",
        "key": "t_address",
        "label": "mapping(address => bool)",
        "numberOfBytes": "32",
        "value": "t_bool"
      },
      "t_mapping(t_int128,t_bytes32)": {
        "encoding": "mapping",
        "key": "t_int128",
        "label": "mapping(int128 => bytes32)",
        "numberOfBytes": "32",
        "value": "t_bytes32"
      },
      "t_mapping(t_uint256,t_struct(ProposalCore)54_storage)": {
        "encoding": "mapping",
        "key": "t_uint256",
        "label": "mapping(uint256 => struct Governor.ProposalCore)",
        "numberOfBytes": "32",
        "value": "t_struct(ProposalCore)54_storage"
      },
      "t_mapping(t_uint256,t_struct(ProposalVote)1949_storage)": {
        "encoding": "mapping",
        "key": "t_uint256",
        "label": "mapping(uint256 => struct GovernorCountingSimple.ProposalVote)",
        "numberOfBytes": "32",
        "value": "t_struct(ProposalVote)1949_storage"
      },
      "t_string_storage": {
        "encoding": "bytes",
        "label": "string",
        "numberOfBytes": "32"
      },
      "t_struct(Bytes32Deque)10127_storage": {
        "encoding": "inplace",
        "label": "struct DoubleEndedQueue.Bytes32Deque",
        "members": [
          {
            "astId": 10120,
            "contract": "contracts/MyGovernor.sol:MyGovernor",
            "label": "_begin",
            "offset": 0,
            "slot": "0",
            "type": "t_int128"
          },
          {
            "astId": 10122,
            "contract": "contracts/MyGovernor.sol:MyGovernor",
            "label": "_end",
            "offset": 16,
            "slot": "0",
            "type": "t_int128"
          },
          {
            "astId": 10126,
            "contract": "contracts/MyGovernor.sol:MyGovernor",
            "label": "_data",
            "offset": 0,
            "slot": "1",
            "type": "t_mapping(t_int128,t_bytes32)"
          }
        ],
        "numberOfBytes": "64"
      },
      "t_struct(Checkpoint224)5344_storage": {
        "encoding": "inplace",
        "label": "struct Checkpoints.Checkpoint224",
        "members": [
          {
            "astId": 5341,
            "contract": "contracts/MyGovernor.sol:MyGovernor",
            "label": "_key",
            "offset": 0,
            "slot": "0",
            "type": "t_uint32"
          },
          {
            "astId": 5343,
            "contract": "contracts/MyGovernor.sol:MyGovernor",
            "label": "_value",
            "offset": 4,
            "slot": "0",
            "type": "t_uint224"
          }
        ],
        "numberOfBytes": "32"
      },
      "t_struct(ProposalCore)54_storage": {
        "encoding": "inplace",
        "label": "struct Governor.ProposalCore",
        "members": [
          {
            "astId": 41,
            "contract": "contracts/MyGovernor.sol:MyGovernor",
            "label": "voteStart",
            "offset": 0,
            "slot": "0",
            "type": "t_uint64"
          },
          {
            "astId": 43,
            "contract": "contracts/MyGovernor.sol:MyGovernor",
            "label": "proposer",
            "offset": 8,
            "slot": "0",
            "type": "t_address"
          },
          {
            "astId": 45,
            "contract": "contracts/MyGovernor.sol:MyGovernor",
            "label": "__gap_unused0",
            "offset": 28,
            "slot": "0",
            "type": "t_bytes4"
          },
          {
            "astId": 47,
            "contract": "contracts/MyGovernor.sol:MyGovernor",
            "label": "voteEnd",
            "offset": 0,
            "slot": "1",
            "type": "t_uint64"
          },
          {
            "astId": 49,
            "contract": "contracts/MyGovernor.sol:MyGovernor",
            "label": "__gap_unused1",
            "offset": 8,
            "slot": "1",
            "type": "t_bytes24"
          },
          {
            "astId": 51,
            "contract": "contracts/MyGovernor.sol:MyGovernor",
            "label": "executed",
            "offset": 0,
            "slot": "2",
            "type": "t_bool"
          },
          {
            "astId": 53,
            "contract": "contracts/MyGovernor.sol:MyGovernor",
            "label": "canceled",
            "offset": 1,
            "slot": "2",
            "type": "t_bool"
          }
        ],
        "numberOfBytes": "96"
      },
      "t_struct(ProposalVote)1949_storage": {
        "encoding": "inplace",
        "label": "struct GovernorCountingSimple.ProposalVote",
        "members": [
          {
            "astId": 1940,
            "contract": "contracts/MyGovernor.sol:MyGovernor",
            "label": "againstVotes",
            "offset": 0,
            "slot": "0",
            "type": "t_uint256"
          },
          {
            "astId": 1942,
            "contract": "contracts/MyGovernor.sol:MyGovernor",
            "label": "forVotes",
            "offset": 0,
            "slot": "1",
            "type": "t_uint256"
          },
          {
            "astId": 1944,
            "contract": "contracts/MyGovernor.sol:MyGovernor",
            "label": "abstainVotes",
            "offset": 0,
            "slot": "2",
            "type": "t_uint256"
          },
          {
            "astId": 1948,
            "contract": "contracts/MyGovernor.sol:MyGovernor",
            "label": "hasVoted",
            "offset": 0,
            "slot": "3",
            "type": "t_mapping(t_address,t_bool)"
          }
        ],
        "numberOfBytes": "128"
      },
      "t_struct(Trace224)5339_storage": {
        "encoding": "inplace",
        "label": "struct Checkpoints.Trace224",
        "members": [
          {
            "astId": 5338,
            "contract": "contracts/MyGovernor.sol:MyGovernor",
            "label": "_checkpoints",
            "offset": 0,
            "slot": "0",
            "type": "t_array(t_struct(Checkpoint224)5344_storage)dyn_storage"
          }
        ],
        "numberOfBytes": "32"
      },
      "t_uint224": {
        "encoding": "inplace",
        "label": "uint224",
        "numberOfBytes": "28"
      },
      "t_uint256": {
        "encoding": "inplace",
        "label": "uint256",
        "numberOfBytes": "32"
      },
      "t_uint32": {
        "encoding": "inplace",
        "label": "uint32",
        "numberOfBytes": "4"
      },
      "t_uint64": {
        "encoding": "inplace",
        "label": "uint64",
        "numberOfBytes": "8"
      }
    }
  }
}